:020000040000FA
:04000000FCEF00F021
:020004000000FA
:020008001000E6
:080018001000140E016EFA0E37
:10002000006E000000000000000000000000000062
:1000300000000000000000000000000000000000C0
:1000400000000000002EEDD7012EE9D700001200BD
:100050008298829A828C0DEC00F0829C1200828839
:10006000829A828C0DEC00F0829C1200590E836EF5
:100070002FEC00F0450E836E2FEC00F0450E836EE2
:100080002FEC00F0080E836E2FEC00F0570E836EFD
:100090002FEC00F0450E836E2FEC00F0490E836EBE
:1000A0002FEC00F0080E836E2FEC00F0590E836EDB
:1000B0002FEC00F0490E836E2FEC00F04E0E836E95
:1000C0002FEC00F0470E836E2FEC00F0B0D0440E02
:1000D000836E2FEC00F0450E836E2FEC00F0390E8E
:1000E000836E2FEC00F0370E836E2FEC00F0320E93
:1000F000836E2FEC00F0390E836E2FEC00F0340E7F
:10010000836E2FEC00F097D0C00E836E28EC00F0C9
:10011000310E836E2FEC00F08AD01200C00E836E79
:1001200028EC00F0320E836E2FEC00F080D012002D
:10013000C00E836E28EC00F0330E836E2FEC00F0BF
:1001400076D01200C00E836E28EC00F0340E836E61
:100150002FEC00F06CD01200C00E836E28EC00F083
:10016000350E836E2FEC00F062D01200C00E836E4D
:1001700028EC00F0360E836E2FEC00F058D0120001
:10018000C00E836E28EC00F0370E836E2FEC00F06B
:100190004ED01200C00E836E28EC00F0380E836E35
:1001A0002FEC00F044D01200C00E836E28EC00F05B
:1001B000390E836E2FEC00F03AD01200C00E836E21
:1001C00028EC00F0300E836E2FEC00F030D01200DF
:1001D000C00E836E28EC00F02A0E836E2FEC00F028
:1001E00026D01200C00E836E28EC00F0230E836E22
:1001F0002FEC00F01CD01200946A956A93689390DB
:100200009392939493969398939A939C939E380E7B
:10021000836E28EC00F00F0E836E28EC00F0010EC8
:10022000836E28EC00F0800E836E28EC00F080B026
:100230001DD717EC01F080B24AD71BEC01F0816AA0
:10024000818081B861D7836A816A818081BA66D7EB
:10025000836A816A818081BC6BD7836A816A81826B
:1002600081B870D7836A816A818281BA75D7836ABF
:10027000816A818281BC7AD7836A816A818481B8EC
:100280007FD7836A816A818481BA84D7836A816ACD
:10029000818481BC89D7836A816A818681B88ED73F
:1002A000836A816A818681BA93D7836A816A8186EB
:0802B00081BC98D7836A0000AD
:00000001FF
